:020000040000FA
:0400000081EF00F09C
:1000080033011B011B011B0140001B0140001B01A8
:100018001B011B011B011B011B011B011B011B01F8
:100028001B014000400040001B011B011B011B017C
:100038001B011B011B012C01E3001B011B011B0100
:100048001B011B011B011B01400040001B011B0180
:100058001B011B011B0140001B011B011B011B0194
:100068001B011B011B011B011B011B011B011B01A8
:100078001B011B011B011B0140001B011B011B0174
:100088001B011B011B011B011B011B011B011B0188
:100098001B011B011B011B0140001B01400040000C
:1000A8001B011B011B011B011B011B011B011B0168
:1000B8001B011B011B011B011B011B011B011B0158
:1000C8001B011B011B011B011B011B011B011B0148
:1000D8001B011B011B011B011B011B011B011B0138
:1000E80040001B011B011B01400040004000400074
:1000F8001B011B011B011B01FF0069EF01F080833D
:1001080086898C8F9295989B9EA2A5A7AAADB0B31D
:10011800B6B9BCBEC1C4C6C9CBCED0D3D5D7DADC3C
:10012800DEE0E2E4E6E8EAEBEDEEF0F1F3F4F5F612
:10013800F8F9FAFAFBFCFDFDFEFEFEFFFFFFFFFFEC
:10014800FFFFFEFEFEFDFDFCFBFAFAF9F8F6F5F4FA
:10015800F3F1F0EEEDEBEAE8E6E4E2E0DEDCDAD734
:10016800D5D3D0CECBC9C6C4C1BEBCB9B6B3B0AD69
:10017800AAA7A5A29E9B9895928F8C898683807C3E
:10018800797673706D6A6764615D5A5855524F4C41
:10019800494643413E3B393634312F2C2A28252302
:1001A800211F1D1B1917151412110F0E0C0B0A090C
:1001B8000706050504030202010101000000000012
:1001C80000000101010202030405050607090A0BE4
:1001D8000C0E0F1112141517191B1D1F212325288A
:1001E8002A2C2F313436393B3E414346494C4F5235
:1001F80055585A5D6164676A6D707376797C3B50B7
:10020800020D010EF324D96E050EF420DA6E61009A
:1002180078F346F5610074F347F54650381807E15E
:1002280047503918D8A41BEF01F01DEF01F04CEF2F
:1002380001F0320E36183710D8A425EF01F027EF59
:1002480001F03EEF01F03B2A090E3B642EEF01F06E
:1002580030EF01F032EF01F0000E3B6E000E396E08
:10026800000E386E000E376E000E366E010E296EC7
:100278004EEF01F0000E426E000E416E010E436E0D
:100288009BEC01F0364A372A000E296E4EEF01F03A
:10029800384A392A2950D8B454EF01F056EF01F002
:1002A80068EF01F03B50020D150EF324D96E050ED0
:1002B800F420DA6E610078F341F5610074F342F5D9
:1002C800010E436E9BEC01F01200060EF66E010E55
:1002D800F76E000EF86E01EE00F210EE00F1090064
:1002E800F5C4EEF4E550E150FAE1E250F8E1260EEB
:1002F800F66E040EF76E000EF86E01EE01F110EEC8
:1003080029F00900F5C4EEF4E550E150FAE101EEF8
:100318002AF1160EEE6AE806FDE10401080E5D6F8B
:10032800000E5E6F000E5F6F0001FDEF01F003012C
:100338001E91800E425CD8A0A4EF01F0A6EF01F058
:10034800A9EF01F07F0E426E4168411C446E421CC9
:10035800456E45503D6E44C53CF56100F4F41DF30F
:100368006100F0F41CF33E904350D8B4BEEF01F0A6
:10037800C0EF01F0C1EF01F03E80B198A1881E8165
:02038800120061
:10038C006100F4F41DF36100F0F41CF3000E3A2448
:10039C00D96EDA6A060EDA22DF5000017D6F040E88
:1003AC003A26B1983EB0DDEF01F0DFEF01F0E2EF5D
:1003BC0001F0A19803011E911100000E326E000E87
:1003CC00336E000E346E000E356E000E2E6E000E67
:1003DC002F6E000E306E000E316E7D0E0301236FFA
:1003EC00010E266FB196F00E246FA18612003F8E7F
:1003FC0068EC02F043EC02F061EC02F0E3EC01F08B
:10040C0028EC02F03F9E03EC01F0BE9E4EEC02F095
:10041C00BE8E09EF02F081EF00F000040004000230
:10042C0000040002000200020002000200042D0081
:10043C002400240035002F002D002800240020006B
:03044C002F00017D
:10045000C00EBE16900E03011A6F540E1B6F000ED5
:100460001F6F010E216F310E1E6F1200610060F3CD
:1004700040F5010E2A26000E2B222C222D2261008F
:1004800000F5D8F41100000E0401006F000EC66ED6
:10049000A00E00017F6F000E7D6F12003F8C3FBCED
:0E04A00054EF02F056EF02F04FEF02F01200A0
:1004B000B1963F9C010E3226000E332234223522A3
:0A04C0001100D68AD68ED68C1200E9
:0604CC00AE9011001200C9
:020000040020DA
:10000000FF0FFF0FFF0FFF0FFF0FFF0FFF0FFF0F80
:10001000FF0FFF0FFF0FFF0FFF0FFF0FFF0FFF0F70
:020000040030CA
:0A0000008CFEFFFC9FFFFFFFFFFFD7
:00000001FF
