:020000040000FA
:04000000FEEFFFF020
:020000040001F9
:10FEFC0012001200120080000000800ECE6E000E68
:10FF0C00C66E000E0401006F1200000E096E000E8A
:10FF1C000A6E000E0B6E000E0C6E000E056E000EBF
:10FF2C00066E000E076E000E086E1200048E7EEC3C
:10FF3C00FFF08BECFFF083ECFFF080ECFFF0C6ECF5
:10FF4C00FFF07FECFFF0A5EFFFF0FEEFFFF0020EED
:10FF5C00F66EFF0EF76E010EF86E01EE14F110EE58
:10FF6C0004F00900F5C4EEF4E550E150FAE101EEBD
:10FF7C0001F10D0EEE6AE806FDE100019CEFFFF0C9
:10FF8C00000E0F6E000E0E6EEFEFFFF0010E14263A
:10FF9C00000E152216221722610050F4BEF40E4AF0
:10FFAC000F2A000E106E350E116E0C0E126E000E16
:10FFBC00136E1006000E115A125A135A10501110CB
:10FFCC0012101310D8A4EDEFFFF0EFEFFFF0DFEFFE
:10FFDC00FFF00FBEFBEFFFF00F5009E1410E0E5C7E
:10FFEC00D8A0FBEFFFF0FDEFFFF0CCEFFFF012001D
:04FFFC00ADEFFFF076
:020000040020DA
:10000000FF0FFF0FFF0FFF0FFF0FFF0FFF0FFF0F80
:10001000FF0FFF0FFF0FFF0FFF0FFF0FFF0FFF0F70
:020000040030CA
:0A0000008CFEFFFC9FFFFFFFFFFFD7
:00000001FF
