:020000040000FA
:04000000FEEFFFF020
:020000040001F9
:10FF2D0080120012001200800ECE6E000EC66E0002
:10FF3D000E0401006F1200000E096E000E0A6E0015
:10FF4D000E0B6E000E0C6E000E056E000E066E0092
:10FF5D000E076E000E086E1200048E97ECFFF0A2D5
:10FF6D00ECFFF09AECFFF099ECFFF0D7ECFFF09876
:10FF7D00ECFFF0BCEFFFF0FEEFFFF02D0EF66EFF85
:10FF8D000EF76E010EF86E09006100D4F312F50143
:10FF9D00EE01F10D0EEE6AE806FDE10001B3EFFF93
:10FFAD00F0F5EFFFF0122A610048F4BEF4000E0EDA
:10FFBD006E350E0F6E0C0E106E000E116E0E0600CD
:10FFCD000E0F5A105A115A0E500F1010101110D842
:10FFDD00A4F3EFFFF0F5EFFFF0E5EFFFF0F00E12F9
:10FFED0064FBEFFFF0FDEFFFF0D9EFFFF01200C45F
:03FFFD00EFFFF023
:020000040020DA
:10000000FF0FFF0FFF0FFF0FFF0FFF0FFF0FFF0F80
:10001000FF0FFF0FFF0FFF0FFF0FFF0FFF0FFF0F70
:020000040030CA
:0A0000008CFEFFFC9FFFFFFFFFFFD7
:00000001FF
