:020000040000FA
:04000000FEEFFFF020
:020000040001F9
:10FF080012001200800ECE6E000EC66E000E0401A6
:10FF1800006F1200800EBE6E900E03011A6F540E11
:10FF28001B6F120001EE01F10D0EEE6AE806FDE10D
:10FF38000001BAEFFFF003011A9F0F50196F61001B
:10FF480038F418F3B19E1A8F1200000E096E000ED5
:10FF58000A6E000E0B6E000E0C6E000E056E000E83
:10FF6800066E000E076E000E086E1200048E84ECFA
:10FF7800FFF0A9ECFFF086ECFFF08EECFFF0DAEC76
:10FF8800FFF0BE9E85ECFFF0030E0F6EE80E0E6EBE
:10FF98009FECFFF0B1AED3EFFFF0D5EFFFF0CEEF5F
:10FFA800FFF0BE8EC3EFFFF0FEEFFFF0CE500E6EF7
:10FFB8000F6A106A116AC00E0E16000E0F16101680
:10FFC8001116F0EFFFF0010E0E26000E0F22102280
:10FFD8001122610038F4BEF4115010100F1009E11D
:10FFE800C00E0E5CD8A0FBEFFFF0FDEFFFF0E7EFCF
:08FFF800FFF0120096EFFFF08C
:020000040020DA
:10000000FF0FFF0FFF0FFF0FFF0FFF0FFF0FFF0F80
:10001000FF0FFF0FFF0FFF0FFF0FFF0FFF0FFF0F70
:020000040030CA
:0A0000008CFEFFFC9FFFFFFFFFFFD7
:00000001FF
