:020000040000FA
:0400000081EF00F09C
:1000080024010C010C010C0140000C0140000C0102
:100018000C010C010C010C010C010C010C010C0170
:100028000C014000400040000C010C010C010C01C7
:100038000C010C010C011D01D0000C010C010C017C
:100048000C010C010C010C01400040000C010C01DA
:100058000C010C010C0140000C010C010C010C01FD
:100068000C010C010C010C010C010C010C010C0120
:100078000C010C010C010C0140000C010C010C01DD
:100088000C010C010C010C010C010C010C010C0100
:100098000C010C010C010C0140000C014000400057
:1000A8000C010C010C010C010C010C010C010C01E0
:1000B8000C010C010C010C010C010C010C010C01D0
:1000C8000C010C010C010C010C010C010C010C01C0
:1000D8000C010C010C010C010C010C010C010C01B0
:1000E80040000C010C010C014000400040004000A1
:1000F8000C010C010C010C01FF0044EF01F080839E
:1001080086898C8F9295989B9EA2A5A7AAADB0B31D
:10011800B6B9BCBEC1C4C6C9CBCED0D3D5D7DADC3C
:10012800DEE0E2E4E6E8EAEBEDEEF0F1F3F4F5F612
:10013800F8F9FAFAFBFCFDFDFEFEFEFFFFFFFFFFEC
:10014800FFFFFEFEFEFDFDFCFBFAFAF9F8F6F5F4FA
:10015800F3F1F0EEEDEBEAE8E6E4E2E0DEDCDAD734
:10016800D5D3D0CECBC9C6C4C1BEBCB9B6B3B0AD69
:10017800AAA7A5A29E9B9895928F8C898683807C3E
:10018800797673706D6A6764615D5A5855524F4C41
:10019800494643413E3B393634312F2C2A28252302
:1001A800211F1D1B1917151412110F0E0C0B0A090C
:1001B8000706050504030202010101000000000012
:1001C80000000101010202030405050607090A0BE4
:1001D8000C0E0F1112141517191B1D1F212325288A
:1001E8002A2C2F313436393B3E414346494C4F5235
:1001F80055585A5D6164676A6D707376797C4850AA
:10020800020D010EF324D96E050EF420DA6E61009A
:1002180078F353F5610074F354F55350451807E12A
:1002280054504618D8A41BEF01F01DEF01F024EF3D
:1002380001F0482A000E466E000E456E26EF01F0CA
:10024800454A462A4850020D1D0EF324D96E050E64
:10025800F420DA6E610078F34EF5610074F34FF51F
:10026800010E506E76EC01F00D0E4818D8A43FEF41
:1002780001F041EF01F043EF01F0000E486E12006B
:10028800060EF66E010EF76E000EF86E01EE00F225
:1002980010EE00F10900F5C4EEF4E550E150FAE182
:1002A800E250F8E17A0EF66E030EF76E000EF86E65
:1002B80001EE01F110EE38F00900F5C4EEF4E55056
:1002C800E150FAE101EE39F1140EEE6AE806FDE1BB
:1002D8000401080E5D6F000E5E6F000E5F6F000177
:1002E800F3EF01F003011E91800E4F5CD8A07FEF61
:1002F80001F081EF01F084EF01F07F0E4F6E4E6840
:100308004E1C516E4F1C526E52504A6E51C549F5E3
:10031800610028F51DF3610024F51CF34B90505043
:10032800D8B499EF01F09BEF01F09CEF01F04B80FE
:10033800B198A1881E811200610028F51DF36100A3
:1003480024F51CF3000E4724D96EDA6A060EDA2269
:10035800DF5000017D6F040E4726B1984BB0B7EF10
:1003680001F0B9EF01F0BCEF01F0A19803011E9173
:100378001100000200020002000200020002000454
:1003880000020002000200020002000200043C0019
:100398003C00280028002400240028002D002D00FF
:1003A8002F002F00350035003C00000E416E000E76
:1003B800426E000E436E000E446E000E3D6E000E3F
:1003C8003E6E000E3F6E000E406E7D0E0301236FE1
:1003D800010E266FB196F00E246FA18612004C8E86
:1003E8004AEC02F025EC02F043EC02F0D9EC01F003
:1003F80009EC02F04C9E03EC01F0BE9E30EC02F0DA
:10040800BE8EFFEF01F081EF00F0C00EBE16900E19
:1004180003011A6F540E1B6F000E1F6F010E216F20
:06042800310E1E6F1200F0
:10043000610060F34DF5010E3926000E3A223B2291
:100440003C22610034F5D8F41100000E0401006F65
:10045000000EC66EA00E00017F6F000E7D6F1200B1
:100460004C8C4CBC36EF02F038EF02F031EF02F06A
:02047000120078
:10047400B1964C9C010E4126000E42224322442296
:0A0484001100D68AD68ED68C120025
:06049000AE901100120005
:020000040020DA
:10000000FF0FFF0FFF0FFF0FFF0FFF0FFF0FFF0F80
:10001000FF0FFF0FFF0FFF0FFF0FFF0FFF0FFF0F70
:020000040030CA
:0A0000008CFEFFFC9FFFFFFFFFFFD7
:00000001FF
