:020000040000FA
:04000000FEEFFFF020
:020000040001F9
:10FF140012001200800ECE6E000EC66E000E04019A
:10FF2400006F1200800EBE6E900E03011A6F540E05
:10FF34001B6F120001EE01F10D0EEE6AE806FDE101
:10FF44000001C0EFFFF003011A9F0F50196F610009
:10FF540038F418F3B19E1A8F1200000E096E000EC9
:10FF64000A6E000E0B6E000E0C6E000E056E000E77
:10FF7400066E000E076E000E086E1200048E8AECE8
:10FF8400FFF0AFECFFF08CECFFF094ECFFF0DAEC58
:10FF9400FFF0BE9E8BECFFF0030E0F6EE80E0E6EAC
:10FFA400A5ECFFF0B18EBE8EC9EFFFF0FEEFFFF0BF
:10FFB400CE500E6E0F6A106A116AC00E0E16000E35
:10FFC4000F1610161116F0EFFFF0010E0E26000E9C
:10FFD4000F2210221122610038F4BEF411501010C7
:10FFE4000F1009E1C00E0E5CD8A0FBEFFFF0FDEF8F
:0CFFF400FFF0E7EFFFF012009CEFFFF0C1
:020000040020DA
:10000000FF0FFF0FFF0FFF0FFF0FFF0FFF0FFF0F80
:10001000FF0FFF0FFF0FFF0FFF0FFF0FFF0FFF0F70
:020000040030CA
:0A0000008CFEFFFC9FFFFFFFFFFFD7
:00000001FF
