:020000040000FA
:0400000081EF00F09C
:1000080037011F011F011F0140001F0140001F0190
:100018001F011F011F011F011F011F011F011F01D8
:100028001F014000400040001F011F011F011F0168
:100038001F011F011F013001E3001F011F011F01E4
:100048001F011F011F011F01400040001F011F0168
:100058001F011F011F0140001F011F011F011F0178
:100068001F011F011F011F011F011F011F011F0188
:100078001F011F011F011F0140001F011F011F0158
:100088001F011F011F011F011F011F011F011F0168
:100098001F011F011F011F0140001F0140004000F8
:1000A8001F011F011F011F011F011F011F011F0148
:1000B8001F011F011F011F011F011F011F011F0138
:1000C8001F011F011F011F011F011F011F011F0128
:1000D8001F011F011F011F011F011F011F011F0118
:1000E80040001F011F011F01400040004000400068
:1000F8001F011F011F011F01FF0069EF01F080832D
:1001080086898C8F9295989B9EA2A5A7AAADB0B31D
:10011800B6B9BCBEC1C4C6C9CBCED0D3D5D7DADC3C
:10012800DEE0E2E4E6E8EAEBEDEEF0F1F3F4F5F612
:10013800F8F9FAFAFBFCFDFDFEFEFEFFFFFFFFFFEC
:10014800FFFFFEFEFEFDFDFCFBFAFAF9F8F6F5F4FA
:10015800F3F1F0EEEDEBEAE8E6E4E2E0DEDCDAD734
:10016800D5D3D0CECBC9C6C4C1BEBCB9B6B3B0AD69
:10017800AAA7A5A29E9B9895928F8C898683807C3E
:10018800797673706D6A6764615D5A5855524F4C41
:10019800494643413E3B393634312F2C2A28252302
:1001A800211F1D1B1917151412110F0E0C0B0A090C
:1001B8000706050504030202010101000000000012
:1001C80000000101010202030405050607090A0BE4
:1001D8000C0E0F1112141517191B1D1F212325288A
:1001E8002A2C2F313436393B3E414346494C4F5235
:1001F80055585A5D6164676A6D707376797C4B50A7
:10020800020D010EF324D96E050EF420DA6E61009A
:1002180078F356F5610074F357F55650481807E11E
:1002280057504918D8A41BEF01F01DEF01F04CEF0F
:1002380001F0320E46184710D8A425EF01F027EF39
:1002480001F03EEF01F04B2A0D0E4B642EEF01F04A
:1002580030EF01F032EF01F0000E4B6E000E496EE8
:10026800000E486E000E476E000E466E010E396E87
:100278004EEF01F0000E526E000E516E010E536EDD
:100288009BEC01F0464A472A000E396E4EEF01F00A
:10029800484A492A3950D8B454EF01F056EF01F0D2
:1002A80068EF01F04B50020D1D0EF324D96E050EB8
:1002B800F420DA6E610078F351F5610074F352F5B9
:1002C800010E536E9BEC01F01200060EF66E010E45
:1002D800F76E000EF86E01EE00F210EE00F1090064
:1002E800F5C4EEF4E550E150FAE1E250F8E1C60E4B
:1002F800F66E030EF76E000EF86E01EE01F110EEC9
:1003080039F00900F5C4EEF4E550E150FAE101EEE8
:100318003AF1160EEE6AE806FDE10401080E5D6F7B
:10032800000E5E6F000E5F6F00011AEF02F003010E
:100338001E91800E525CD8A0A4EF01F0A6EF01F048
:10034800A9EF01F07F0E526E5168511C546E521C79
:10035800556E55504D6E54C54CF5610034F51DF37E
:10036800610030F51CF34E905350D8B4BEEF01F045
:10037800C0EF01F0C1EF01F04E80B198A1881E8155
:02038800120061
:10038C00610034F51DF3610030F51CF3000E4A24B6
:10039C00D96EDA6A060EDA22DF5000017D6F040E88
:1003AC004A26B1984EB0DDEF01F0DFEF01F0E2EF3D
:1003BC0001F0A19803011E9111000002000200023D
:1003CC00000200020002000400020002000200020F
:1003DC000002000200043C003C002800280024001D
:1003EC00240028002D002D002F002F003500350093
:0303FC003C0001C1
:10040000000E426E000E436E000E446E000E456EEE
:10041000000E3E6E000E3F6E000E406E000E416EEE
:100420007D0E0301236F010E266FB196F00E246F2F
:10043000A18612004F8E70EC02F04BEC02F069ECDA
:1004400002F000EC02F030EC02F04F9E03EC01F001
:10045000BE9E56EC02F0BE8E26EF02F081EF00F059
:10046000C00EBE16900E03011A6F540E1B6F000EC5
:100470001F6F010E216F310E1E6F1200610060F3BD
:1004800050F5010E3A26000E3B223C223D2261002F
:1004900040F5D8F41100000E0401006F000EC66E86
:1004A000A00E00017F6F000E7D6F12004F8C4FBCBD
:0E04B0005CEF02F05EEF02F057EF02F0120078
:1004C000B1964F9C010E4226000E43224422452243
:0A04D0001100D68AD68ED68C1200D9
:0604DC00AE9011001200B9
:020000040020DA
:10000000FF0FFF0FFF0FFF0FFF0FFF0FFF0FFF0F80
:10001000FF0FFF0FFF0FFF0FFF0FFF0FFF0FFF0F70
:020000040030CA
:0A0000008CFEFFFC9FFFFFFFFFFFD7
:00000001FF
