:020000040000FA
:04000000FEEFFFF020
:020000040001F9
:10FED00012001200800ECE6E000EC66E000E0401DF
:10FEE000006F1200800EBE6E900E03011A6F540E4A
:10FEF0001B6F120001EE01F10D0EEE6AE806FDE146
:10FF000000019EEFFFF003011A9F0F50196F61006F
:10FF100038F418F3B19E1A8F1200000E096E000E0D
:10FF20000A6E000E0B6E000E0C6E000E056E000EBB
:10FF3000066E000E076E000E086E1200048E68EC4E
:10FF4000FFF08DECFFF06AECFFF072ECFFF0BEEC1E
:10FF5000FFF0BE9E69ECFFF0030E0F6EE80E0E6E12
:10FF600083ECFFF0B1AEB7EFFFF0B9EFFFF0B2EF07
:10FF7000FFF0BE8EA7EFFFF0FEEFFFF0CE50126E47
:10FF8000136A146A156A3F0E1216000E1316141621
:10FF90001516F0EFFFF0010E1226000E13221422A8
:10FFA0001522610048F4BEF4000E0E6E000E0F6EB6
:10FFB000000E106E000E116E010E0E26000E0F22A6
:10FFC00010221122115010100BE1400E0E5C1F0E7A
:10FFD0000F58D8A0EEEFFFF0F0EFFFF0DCEFFFF0EE
:10FFE00015501410131009E1C00E125CD8A0FBEFDD
:10FFF000FFF0FDEFFFF0CBEFFFF012007AEFFFF024
:020000040020DA
:10000000FF0FFF0FFF0FFF0FFF0FFF0FFF0FFF0F80
:10001000FF0FFF0FFF0FFF0FFF0FFF0FFF0FFF0F70
:020000040030CA
:0A0000008CFEFFFC9FFFFFFFFFFFD7
:00000001FF
