:020000040000FA
:0400000081EF00F09C
:10000800380120012001200140002001400020018A
:1000180020012001200120012001200120012001D0
:100028002001400040004000200120012001200163
:100038002001200120013101E400200120012001DC
:100048002001200120012001400040002001200162
:100058002001200120014000200120012001200171
:100068002001200120012001200120012001200180
:100078002001200120012001400020012001200151
:100088002001200120012001200120012001200160
:1000980020012001200120014000200140004000F3
:1000A8002001200120012001200120012001200140
:1000B8002001200120012001200120012001200130
:1000C8002001200120012001200120012001200120
:1000D8002001200120012001200120012001200110
:1000E8004000200120012001400040004000400065
:1000F8002001200120012001FF006BEF01F0808327
:1001080086898C8F9295989B9EA2A5A7AAADB0B31D
:10011800B6B9BCBEC1C4C6C9CBCED0D3D5D7DADC3C
:10012800DEE0E2E4E6E8EAEBEDEEF0F1F3F4F5F612
:10013800F8F9FAFAFBFCFDFDFEFEFEFFFFFFFFFFEC
:10014800FFFFFEFEFEFDFDFCFBFAFAF9F8F6F5F4FA
:10015800F3F1F0EEEDEBEAE8E6E4E2E0DEDCDAD734
:10016800D5D3D0CECBC9C6C4C1BEBCB9B6B3B0AD69
:10017800AAA7A5A29E9B9895928F8C898683807C3E
:10018800797673706D6A6764615D5A5855524F4C41
:10019800494643413E3B393634312F2C2A28252302
:1001A800211F1D1B1917151412110F0E0C0B0A090C
:1001B8000706050504030202010101000000000012
:1001C80000000101010202030405050607090A0BE4
:1001D8000C0E0F1112141517191B1D1F212325288A
:1001E8002A2C2F313436393B3E414346494C4F5235
:1001F80055585A5D6164676A6D707376797C4B50A7
:10020800020D010EF324D96E050EF420DA6E61009A
:1002180078F356F5610074F357F50E0E4B6017EF3F
:1002280001F019EF01F068EF01F05650481807E1A6
:1002380057504918D8A423EF01F025EF01F04AEFF1
:1002480001F0320E46184710D8A42DEF01F02FEF19
:1002580001F03CEF01F04B2A000E496E000E486E8B
:10026800000E476E000E466E010E396E4CEF01F01F
:10027800000E526E000E516E010E536E9DEC01F091
:10028800464A472A000E396E4CEF01F0484A492A7F
:100298003950D8B452EF01F054EF01F06AEF01F091
:1002A8004B50020D1D0EF324D96E050EF420DA6EA4
:1002B800610078F351F5610074F352F5010E536E45
:1002C8009DEC01F06AEF01F0000E4B6E1200060E75
:1002D800F66E010EF76E000EF86E01EE00F210EEEB
:1002E80000F10900F5C4EEF4E550E150FAE1E250FE
:1002F800F8E1CA0EF66E030EF76E000EF86E01EE08
:1003080001F110EE39F00900F5C4EEF4E550E150C2
:10031800FAE101EE3AF1160EEE6AE806FDE1040193
:10032800080E5D6F000E5E6F000E5F6F00011CEF20
:1003380002F003011E91800E525CD8A0A6EF01F0D6
:10034800A8EF01F0ABEF01F07F0E526E5168511C1F
:10035800546E521C556E55504D6E54C54CF5610087
:1003680034F51DF3610030F51CF34E905350D8B4AA
:10037800C0EF01F0C2EF01F0C3EF01F04E80B19879
:06038800A1881E81120095
:10039000610034F51DF3610030F51CF3000E4A24B2
:1003A000D96EDA6A060EDA22DF5000017D6F040E84
:1003B0004A26B1984EB0DFEF01F0E1EF01F0E4EF33
:1003C00001F0A19803011E91110000020002000239
:1003D000000200020002000400020002000200020B
:1003E0000002000200043C003C0028002800240019
:1003F000240028002D002D002F002F00350035008F
:030400003C0001BC
:10040400000E426E000E436E000E446E000E456EEA
:10041400000E3E6E000E3F6E000E406E000E416EEA
:100424007D0E0301236F010E266FB196F00E246F2B
:10043400A18612004F8E72EC02F04DEC02F06BECD0
:1004440002F002EC02F032EC02F04F9E03EC01F0F9
:10045400BE9E58EC02F0BE8E28EF02F081EF00F051
:10046400C00EBE16900E03011A6F540E1B6F000EC1
:100474001F6F010E216F310E1E6F1200610060F3B9
:1004840050F5010E3A26000E3B223C223D2261002B
:1004940040F5D8F41100000E0401006F000EC66E82
:1004A400A00E00017F6F000E7D6F12004F8C4FBCB9
:0E04B4005EEF02F060EF02F059EF02F012006E
:1004C400B1964F9C010E4226000E4322442245223F
:0A04D4001100D68AD68ED68C1200D5
:0604E000AE9011001200B5
:020000040020DA
:10000000FF0FFF0FFF0FFF0FFF0FFF0FFF0FFF0F80
:10001000FF0FFF0FFF0FFF0FFF0FFF0FFF0FFF0F70
:020000040030CA
:0A0000008CFEFFFC9FFFFFFFFFFFD7
:00000001FF
