:020000040000FA
:0400000081EF00F09C
:100008000101E900E900E9004000E9004000E900D9
:10001800E900E900E900E900E900E900E900E90090
:10002800E900400040004000E900E900E900E9007B
:10003800E900E900E900FA00B000E900E900E90098
:10004800E900E900E900E90040004000E900E900B2
:10005800E900E900E9004000E900E900E900E900F9
:10006800E900E900E900E900E900E900E900E90040
:10007800E900E900E900E9004000E900E900E900D9
:10008800E900E900E900E900E900E900E900E90020
:10009800E900E900E900E9004000E900400040000B
:1000A800E900E900E900E900E900E900E900E90000
:1000B800E900E900E900E900E900E900E900E900F0
:1000C800E900E900E900E900E900E900E900E900E0
:1000D800E900E900E900E900E900E900E900E900D0
:1000E8004000E900E900E90040004000400040000D
:1000F800E900E900E900E900FF0003EF01F080836F
:1001080086898C8F9295989B9EA2A5A7AAADB0B31D
:10011800B6B9BCBEC1C4C6C9CBCED0D3D5D7DADC3C
:10012800DEE0E2E4E6E8EAEBEDEEF0F1F3F4F5F612
:10013800F8F9FAFAFBFCFDFDFEFEFEFFFFFFFFFFEC
:10014800FFFFFEFEFEFDFDFCFBFAFAF9F8F6F5F4FA
:10015800F3F1F0EEEDEBEAE8E6E4E2E0DEDCDAD734
:10016800D5D3D0CECBC9C6C4C1BEBCB9B6B3B0AD69
:10017800AAA7A5A29E9B9895928F8C898683807C3E
:10018800797673706D6A6764615D5A5855524F4C41
:10019800494643413E3B393634312F2C2A28252302
:1001A800211F1D1B1917151412110F0E0C0B0A090C
:1001B8000706050504030202010101000000000012
:1001C80000000101010202030405050607090A0BE4
:1001D8000C0E0F1112141517191B1D1F212325288A
:1001E8002A2C2F313436393B3E414346494C4F5235
:1001F80055585A5D6164676A6D707376797C060E2E
:10020800F66E010EF76E000EF86E01EE00F210EEBB
:1002180000F10900F5C4EEF4E550E150FAE1E250CE
:10022800F8E1860EF66E030EF76E000EF86E01EE1C
:1002380001F110EE1CF00900F5C4EEF4E550E150B0
:10024800FAE101EE1DF1110EEE6AE806FDE1040186
:10025800080E5D6F000E5E6F000E5F6F000197EF76
:1002680001F003011E91800E305CD8A03EEF01F032
:1002780040EF01F043EF01F07F0E306E2F682F1C26
:10028800326E301C336E33502B6E32C52AF5610046
:10029800ACF41DF36100A8F41CF32C903150D8B4D1
:1002A80058EF01F05AEF01F05BEF01F02C80B198A4
:0602B800A1881E81120066
:1002C0006100ACF41DF36100A8F41CF3000E2924B6
:1002D000D96EDA6A060EDA22DF5000017D6F040E55
:1002E0002926B1982CB077EF01F079EF01F07CEF7F
:1002F00001F0A19803011E911100000E256E000E61
:10030000266E000E276E000E286E000E216E000E67
:10031000226E000E236E000E246E7D0E0301236FED
:10032000010E266FB196F00E246FA18612002D8E5D
:1003300005EC02F0DFEC01F0FDEC01F07DEC01F0EA
:10034000ADEC01F02D9E04EC02F0BE9EEAEC01F053
:10035000BE8EA3EF01F081EF00F0C00EBE16900E2E
:1003600003011A6F540E1B6F000E1F6F010E216FD9
:10037000310E1E6F000E306E100E2F6E010E316E9C
:1003800035EC01F012003C003C002800280024005D
:10039000240028002D002D002F002F0035003500EF
:0203A0003C001F
:1003A400610060F32EF5010E1D26000E1E221F2291
:1003B40020226100B8F4D8F41100000E0401006F8B
:1003C400000EC66EA00E00017F6F000E7D6F12003E
:1003D4002D8C2DBCF0EF01F0F2EF01F0EBEF01F00A
:0203E400120005
:1003E800B1962D9C010E2526000E262227222822B2
:0A03F8001100D68AD68ED68C1200B2
:08040400AE901100120012007D
:020000040020DA
:10000000FF0FFF0FFF0FFF0FFF0FFF0FFF0FFF0F80
:10001000FF0FFF0FFF0FFF0FFF0FFF0FFF0FFF0F70
:020000040030CA
:0A0000008CFEFFFC9FFFFFFFFFFFD7
:00000001FF
