:020000040000FA
:04000000FEEFFFF020
:020000040001F9
:10FF140012001200800EBE6E900E03011A6F540E72
:10FF24001B6F120001EE01F10D0EEE6AE806FDE111
:10FF34000001DEEFFFF0000EC66E000E0401006F3C
:10FF4400A00E00017F6F000E7D6F1200FF0E0E5E8B
:10FF5400FF0E0F5A03011A9F0F50196F610038F4F6
:10FF640018F3B19E1A8F1200000E096E000E0A6E6D
:10FF7400000E0B6E000E0C6E000E056E000E066E6B
:10FF8400000E076E000E086E12006000F4F10EF50C
:10FF9400080EBE160E28D8A4D2EFFFF0D4EFFFF05F
:10FFA400D8EFFFF0000EBE6EDDEFFFF0610038F415
:10FFB4007DF00E2ABE2A1200048E8AECFFF0B6EC05
:10FFC400FFF09DECFFF08CECFFF0C7ECFFF0BE9E61
:10FFD4008BECFFF0000E0F6E040E0E6EA8ECFFF01B
:10FFE400B1AEF7EFFFF0F9EFFFF0F2EFFFF0BE8EE6
:0CFFF400E7EFFFF0FEEFFFF094EFFFF0EE
:020000040020DA
:10000000FF0FFF0FFF0FFF0FFF0FFF0FFF0FFF0F80
:10001000FF0FFF0FFF0FFF0FFF0FFF0FFF0FFF0F70
:020000040030CA
:0A0000008CFEFFFC9FFFFFFFFFFFD7
:00000001FF
