:020000040000FA
:04000000FEEFFFF020
:020000040001F9
:10FDB40012001200800EBE6E900E03011A6F540ED4
:10FDC4001B6F1200000EC66E000E0401006FA00E21
:10FDD40000017F6F000E7D6F1200000E096E000E91
:10FDE4000A6E000E0B6E000E0C6E000E056E000EF9
:10FDF400066E000E076E000E086E120003011A9FB5
:10FE0400111C136E121C146E14C513F5146A1350CE
:10FE1400196F1150FF0A186FB19E1A8F1200FC0E51
:10FE2400F66EFE0EF76E010EF86E01EE00F210EEA5
:10FE340000F10900F5C4EEF4E550E150FAE1E250B6
:10FE4400F8E101EE01F1100EEE6AE806FDE10001B1
:10FE54002CEFFFF0048EDAECFEF0EFECFEF0E4ECB5
:10FE6400FEF0DCECFEF04CECFFF0BE9EDBECFEF0B2
:10FE7400000E126E060E116E00ECFFF0B1AE45EFEF
:10FE8400FFF047EFFFF040EFFFF0BE8E35EFFFF0DD
:10FE9400FEEFFFF00D280E10D8A453EFFFF055EF3E
:10FEA400FFF057EFFFF0010E0F6E0F50D8B45DEF67
:10FEB400FFF05FEFFFF070EFFFF0000E0D24D96E3E
:10FEC400060E0E20DA6EDF5000017D6F000E0E6EFE
:10FED400000E0D6E000E0F6E7DEFFFF0000E0D2470
:10FEE400D96E060E0E20DA6EDF5000017D6F030E10
:10FEF4000D26000E0E221200808386898C8F929527
:10FF0400989B9EA2A5A7AAADB0B3B6B9BCBEC1C406
:10FF1400C6C9CBCED0D3D5D7DADCDEE0E2E4E6E85E
:10FF2400EAEBEDEEF0F1F3F4F5F6F8F9FAFAFBFC8E
:10FF3400FDFDFEFEFEFFFFFFFFFFFFFFFEFEFEFDD9
:10FF4400FDFCFBFAFAF9F8F6F5F4F3F1F0EEEDEB5B
:10FF5400EAE8E6E4E2E0DEDCDAD7D5D3D0CECBC9FA
:10FF6400C6C4C1BEBCB9B6B3B0ADAAA7A5A29E9B78
:10FF74009895928F8C898683807C797673706D6A6C
:10FF84006764615D5A5855524F4C494643413E3B64
:10FF9400393634312F2C2A282523211F1D1B1917EC
:10FFA400151412110F0E0C0B0A090706050504039C
:10FFB4000202010101000000000000000101010231
:10FFC40002030405050607090A0B0C0E0F1112148F
:10FFD4001517191B1D1F212325282A2C2F313436D0
:10FFE400393B3E414346494C4F5255585A5D616432
:0CFFF400676A6D707376797C11EFFFF086
:020000040020DA
:10000000FF0FFF0FFF0FFF0FFF0FFF0FFF0FFF0F80
:10001000FF0FFF0FFF0FFF0FFF0FFF0FFF0FFF0F70
:020000040030CA
:0A0000008CFEFFFC9FFFFFFFFFFFD7
:00000001FF
