:020000040000FA
:04000000FEEFFFF020
:020000040001F9
:10FF160012001200800ECE6E000EC66E000E040198
:10FF2600006F1200800EBE6E900E03011A6F540E03
:10FF36001B6F120001EE01F10D0EEE6AE806FDE1FF
:10FF46000001B7EFFFF0000E096E000E0A6E000EFC
:10FF56000B6E000E0C6E000E056E000E066E000E89
:10FF6600076E000E086E1200048E8BECFFF0A6ECF6
:10FF7600FFF08DECFFF095ECFFF0C8ECFFF08CEC99
:10FF8600FFF0C0EFFFF0FEEFFFF0CE500E6E0F6AEF
:10FF9600106A116AF0EFFFF0010E0E26000E0F2216
:10FFA60010221122610038F4BEF4000E126E350ED6
:10FFB600136E0C0E146E000E156E1206000E135AFA
:10FFC600145A155A1250131014101510D8A4EEEF27
:10FFD600FFF0F0EFFFF0E0EFFFF0115010100F1000
:10FFE60009E1C00E0E5CD8A0FBEFFFF0FDEFFFF0BD
:0AFFF600CFEFFFF012009DEFFFF0C7
:020000040020DA
:10000000FF0FFF0FFF0FFF0FFF0FFF0FFF0FFF0F80
:10001000FF0FFF0FFF0FFF0FFF0FFF0FFF0FFF0F70
:020000040030CA
:0A0000008CFEFFFC9FFFFFFFFFFFD7
:00000001FF
