:020000040000FA
:04000000FEEFFFF020
:020000040001F9
:10FF9A001200120012001200BE50120001EE01F10E
:10FFAA000D0EEE6AE806FDE10001EDEFFFF0000E2E
:10FFBA00096E000E0A6E000E0B6E000E0C6E000E1D
:10FFCA00056E000E066E000E076E000E086E120019
:10FFDA00048ECDECFFF0DCECFFF0CEECFFF0D0ECC1
:10FFEA00FFF0D1ECFFF0CFECFFF0F6EFFFF0FEEF01
:06FFFA00FFF0D3EFFFF061
:020000040020DA
:10000000FF0FFF0FFF0FFF0FFF0FFF0FFF0FFF0F80
:10001000FF0FFF0FFF0FFF0FFF0FFF0FFF0FFF0F70
:020000040030CA
:0A0000008CFEFFFC9FFFFFFFFFFFD7
:00000001FF
