:020000040000FA
:04000000FEEFFFF020
:020000040001F9
:10FF140012001200120080000000800EBE6E200E3F
:10FF2400C76E000EC66E000E0401006F000E086F4F
:10FF34001200000E096E000E0A6E000E0B6E000E0B
:10FF44000C6E000E056E000E066E000E076E000E9F
:10FF5400086E1200048E8AECFFF09BECFFF08FEC2D
:10FF6400FFF08CECFFF0D6ECFFF08BECFFF0B5EF7C
:10FF7400FFF0FEEFFFF01A0EF66EFF0EF76E010EA5
:10FF8400F86E01EE0EF110EE04F00900F5C4EEF483
:10FF9400E550E150FAE101EE01F10D0EEE6AE806DA
:10FFA400FDE10001ACEFFFF0CFAADBEFFFF0DDEFE6
:10FFB400FFF0FDEFFFF0610038F4BEF411501010B3
:10FFC4000F1007E1BF0E0E5CD8B0EBEFFFF0EDEFC2
:10FFD400FFF0F5EFFFF0010E0E26000E0F221022A7
:10FFE4001122FDEFFFF0800E0E6E000E0F6E000E5C
:0CFFF400106E000E116E1200BDEFFFF049
:020000040020DA
:10000000FF0FFF0FFF0FFF0FFF0FFF0FFF0FFF0F80
:10001000FF0FFF0FFF0FFF0FFF0FFF0FFF0FFF0F70
:020000040030CA
:0A0000008CFEFFFC9FFFFFFFFFFFD7
:00000001FF
